:03040000020A9B52
:0C0A9B00787FE4F6D8FD758157020AE26E
:0B3DF500300253010439071BA5C23D3A
:100C740002510304C10402563A00052D452035E013
:100C84002E013445014256024020350254E02E0222
:100C94003D3520024C2EE0013F00014300012A00B3
:100CA400015300014F00014E64022BFFFF0232FF8B
:0A0CB400FF04230000000001276484
:100B2700E4F5A7F5D975A70F43A107F5A7120D415E
:100B3700C297D285C293900000AF82AE83E4FCFDDA
:100B47007B507AC3F9F8D31207D34003A380EA1284
:100B57000DA67F207E4E120D6A120DBF12040312DE
:100B67000D8A120DD843E601E4F550F544F545F535
:100B770028F529D2AF7F06783774FDF608DFFC7FAA
:100B870006200421E550B40114C2AFAF2CAE2BD21E
:100B9700AFE4F550FCFD120BB08E358F3612042DE5
:090BA700120C1480DCC20480D899
:0D040300AFA7E4F5A775C11543C1808FA711
:0104100022C9
:100DA600AFA7E4F5A7438E01538EF5758920758D9F
:080DB60038858D8BD28E8FA7CA
:010DBE002212
:100DBF00AFA7E4F5A7F591538EBF7593637592C0F6
:080DCF008593958592948FA78E
:010DD70022F9
:100D4100AFA775A70F75F1FF53F2DF53A5D943A5DF
:100D51008875A4205380DF75E10875C74075D4FFFD
:080D610075D50143D5208FA7D1
:010D69002267
:100D6A00ADA7E4F5A7F5C8538E9FC39FFFE49EF590
:0F0D7A00CB8FCA74FFF5CDF5CCD2ADD2CA8DA701
:010D89002247
:100D8A00AFA7E4F5A775E80375C95075D13C75BBE3
:0B0D9A003075BC3843E604D2EF8FA791
:010DA500222B
:080BB0008F0B8E0A8D098C08E1
:100BB800E5296003B40117E50B245AF50FE4350A5B
:100BC800F50EE43509F50DE43508F50C8037E47FBA
:100BD80064FEFDFCAB0BAA0AA909A808D31207E911
:100BE800500BE4F50FF50EF50DF50C8018E50B2408
:100BF80083F50FE50A34FFF50EE50934FFF50DE539
:0B0C08000834FFF50CE50FFFE50EFEC1
:010C130022BE
:07042100907C00E493FF2230
:10042D0085350A85360BE52914602C14605214604D
:10043D00721470030204C51470030205E4240560F0
:10044D0003020660C3E5459432E54494005003026F
:10045D000660C28505292230811DC2AFE4F544F541
:10046D0045D2AF208103020660C3E5459428E544DB
:10047D00940040EF052922309403D29322C2932297
:10048D00D285C293C2AFE4F528D2AFF53FE543B4B0
:10049D00D102D2970529120DE6E4F5C87FC47E0975
:1004AD00020D6AE528C3940A50030206600529A2CD
:1004BD00A09201A287920022E54364D1606520A03D
:1004CD0018E53430E213E4F528E528D3940A40F911
:1004DD0020A0060529753F042220900BE53430E05D
:1004ED00060529753F012220840BE53430E1060510
:1004FD0029753F0222208218E53430E413E4F528F3
:10050D00E528D3940A40F92082060529753F10226B
:10051D00A287300001B3500BE53430E5060529758F
:10052D003F2022E50B2464FFE4350AFEC3EF954D11
:10053D00EE954C5046E53430E741E55330E002800E
:10054D0001C34037E4F528F509F508E550B4011964
:10055D00E4F550E50B2464FFE4350AFEC3EF954D39
:10056D00EE954C500205090508E528D3945040DB63
:10057D00E508B509060529753F8022E50B249CFF8A
:10058D00E50A34FFFED3EF953EEE953D500302068E
:10059D0060E53420E603020660E4F528F509F50868
:1005AD00E550B4011AE4F550E50B249CFFE50A343F
:1005BD00FFFED3EF953EEE953D400205090508E59A
:1005CD0028D3945040DAE5086509600302066005FA
:1005DD0029753F40F54F22E4F528E528D3954E4087
:1005ED00F9E53F64806019E53430E714E50B2464C8
:1005FD00FFE4350AFEC3EF954DEE954C5002800C8D
:10060D00E53FB4800BE54FC39403400475290422E4
:10061D00E543B4D10EE4F543C297F528E528D3940C
:10062D000A40F9120DF2E4F5C87F207E4E120D6AD4
:10063D00C285C2AFE4F544F545F528D2AFE53F6478
:10064D008060065353FEE4F54FE53FB48002054F3D
:03065D00E4F52998
:010660002277
:100C1400309005432A018003532AFE308405432A79
:100C2400028003532AFD30A005432A048003532A7B
:100C3400FB308205432A108003532AEFC3E5369420
:100C440058E535941B5003432A20D3E536953EE5F9
:100C540035953D4005432A408003532ABFC3E536FA
:100C6400954DE535954C5004432A8022532A7F2222
:10091900E5461207FA09E005095E10096211096B3B
:1009290012096F13097814098315098716098E1797
:10093900099518099919099D1A09A42009A82109D5
:10094900AC2209BE2309C22409D42509D82609DC09
:1009590029000009E585423722E552F537E551F5C9
:100969003822853F3722E536F537E535F53822E572
:1009790033F537E532FFEFF53822853437228540E4
:10098900378541382285543785553822854E372297
:1009990085533722852A37532ADF22854734228512
:1009A900474122854740E541FE7C00E42540F53E6C
:1009B900EC3EF53D2285475522854754E555FE7C99
:1009C90000E42554F54DEC3EF54C2285474E228531
:0C09D900475322854743221204218F104F
:0109E50022EF
:0C0DE600E4F5A775A70F53A1FCF5A722A8
:0C0DF200E4F5A775A70F43A107F5A722A1
:030418000209E6F0
:1009E600C0E0C083C082C0D075D000C000C004C0C3
:0309F60006C00731
:1009F90030C203020A80E5C054F0602D24F060493A
:100A090024D0604724F060592430705BC2C5752139
:100A190001752201E5C254FEFFBF6009D2C1E5C2DA
:100A290030E05C8030C2C18056E522C3940674452B
:100A390050092522F8A6C2052280072522F8A6C258
:100A4900D204120919D2C18036801630C131E5218C
:100A5900D39406502A74362521F8E6F5C20521807B
:100A69001ED204C2C4801853C17F43C180C2C5C20B
:100A7900C4D204C2C18008C2C5C2C4C2C1D204C2A0
:010A8900C0AC
:100A8A00D007D006D004D000D0D0D082D083D0E016
:010A9A003229
:03042A00020DFEC2
:0A0DFE0053917F53C17F43C180323F
:03041200020D03D5
:100D0300C0E0C0F0C0D075D000C000C004C005C0B2
:100D130006C007C2CF0545E54570020544AE44FF52
:100D23007C007D0A120661ED4C70020528D007D0C5
:0E0D330006D005D004D000D0D0D0F0D0E032F1
:03041E00020820B1
:10082000C0E0C0F0C083C082C0D075D000C000C09E
:0D08300001C002C003C004C005C006C0071F
:10083D00C2EDAFBDAEBEE4FCFDE5262FF526E525E8
:10084D003EF525ED3524F524EC3523F5231527E567
:10085D002760030208FE7527647B64FAF9F8AF265A
:10086D00AE25AD24AC231207418F148E138D128C3F
:10087D0011752600752500752400752300E5BBB4A0
:10088D000D30E47FC37E1DFDFCAB14AA13A912A885
:10089D00111206B6E47BE87A03F9F8120CBF8F1437
:1008AD008E138D128C118E2B8F2C75BB30755001C4
:1008BD00803FE5BBB4303AE51424A8FFE51334FCC2
:1008CD00FEE51234FFFDE51134FFFCE47B64FAF91B
:1008DD00F81206B6E47B4D7A01F9F8120CBF8E3290
:1008ED008F3374382533F53374FF3532F53275BBDC
:0108FD000DED
:1008FE00D007D006D005D004D003D002D001D0004E
:0B090E00D0D0D082D083D0F0D0E032F7
:0D0DD800AFA7E4F5A775FFA075EF028FA788
:010DE50022EB
:100AA700020B27E493A3F8E493A34003F68001F233
:100AB70008DFF48029E493A3F85407240CC8C33350
:100AC700C4540F4420C8834004F456800146F6DF1F
:100AD700E4800B0102040810204080900C74E47E2F
:100AE700019360BCA3FF543F30E509541FFEE49314
:100AF700A360010ECF54C025E060A840B8E493A3DB
:100B0700FAE493A3F8E493A3C8C582C8CAC583CA05
:100B1700F0A3C8C582C8CAC583CADFE9DEE780BEBD
:010CBE000035
:10066100BC000BBE0029EF8DF084FFADF022E4CC7D
:10067100F875F008EF2FFFEE33FEEC33FCEE9DEC46
:10068100984005FCEE9DFE0FD5F0E9E4CEFD22ED8C
:10069100F8F5F0EE8420D21CFEADF075F008EF2FD6
:1006A100FFED33FD4007985006D5F0F222C398FDC7
:0506B1000FD5F0EA2264
:1006B600E88FF0A4CC8BF0A42CFCE98EF0A42CFCE3
:1006C6008AF0EDA42CFCEA8EF0A4CDA8F08BF0A461
:1006D6002DCC3825F0FDE98FF0A42CCD35F0FCEBC0
:1006E6008EF0A4FEA9F0EB8FF0A4CFC5F02ECD3985
:0F06F600FEE43CFCEAA42DCE35F0FDE43CFC22F2
:1007050075F008758200EF2FFFEE33FECD33CDCCAB
:1007150033CCC58233C5829BED9AEC99E58298402E
:100725000CF582EE9BFEED9AFDEC99FC0FD5F0D60B
:10073500E4CEFBE4CDFAE4CCF9A88222B800C1B935
:100745000059BA002DEC8BF084CFCECDFCE5F0CB73
:10075500F97818EF2FFFEE33FEED33FDEC33FCEBAC
:1007650033FB10D703994004EB99FB0FD8E5E4F967
:10077500FA227818EF2FFFEE33FEED33FDEC33FC54
:10078500C933C910D7059BE99A4007EC9BFCE99A48
:10079500F90FD8E0E4C9FAE4CCFB2275F010EF2F8D
:1007A500FFEE33FEED33FDCC33CCC833C810D7078D
:1007B5009BEC9AE899400AED9BFDEC9AFCE899F8C8
:0E07C5000FD5F0DAE4CDFBE4CCFAE4C8F9225B
:100CBF00C2D5E830E70FB2D5E4C39BFBE49AFAE460
:100CCF0099F9E498F8EC30E717B2D5120CF5120742
:100CDF0041E4C39BFBE49AFAE499F9E498F88003A2
:100CEF0012074130D50DE4C39FFFE49EFEE49DFD46
:040CFF00E49CFC2253
:1007D300EB9FF5F0EA9E42F0E99D42F0EC6480C89D
:0607E30064809845F0223D
:1007E900EB9FF5F0EA9E42F0E99D42F0E89C45F066
:0107F90022DD
:1007FA00D083D082F8E4937012740193700DA3A38E
:10080A0093F8740193F5828883E4737402936860A1
:06081A00EFA3A3A380DFA1
:00000001FF
